{
    "_format": "hh-sol-artifact-1",
    "contractName": "MyNFT",
    "sourceName": "contracts/MyNFTv2.sol",
    "abi": [
        {
            "inputs": [],
            "stateMutability": "nonpayable",
            "type": "constructor"
        },
        {
            "inputs": [],
            "name": "InvalidShortString",
            "type": "error"
        },
        {
            "inputs": [
                {
                    "internalType": "string",
                    "name": "str",
                    "type": "string"
                }
            ],
            "name": "StringTooLong",
            "type": "error"
        },
        {
            "anonymous": false,
            "inputs": [
                {
                    "indexed": true,
                    "internalType": "address",
                    "name": "owner",
                    "type": "address"
                },
                {
                    "indexed": true,
                    "internalType": "address",
                    "name": "approved",
                    "type": "address"
                },
                {
                    "indexed": true,
                    "internalType": "uint256",
                    "name": "tokenId",
                    "type": "uint256"
                }
            ],
            "name": "Approval",
            "type": "event"
        },
        {
            "anonymous": false,
            "inputs": [
                {
                    "indexed": true,
                    "internalType": "address",
                    "name": "owner",
                    "type": "address"
                },
                {
                    "indexed": true,
                    "internalType": "address",
                    "name": "operator",
                    "type": "address"
                },
                {
                    "indexed": false,
                    "internalType": "bool",
                    "name": "approved",
                    "type": "bool"
                }
            ],
            "name": "ApprovalForAll",
            "type": "event"
        },
        {
            "anonymous": false,
            "inputs": [
                {
                    "indexed": false,
                    "internalType": "uint256",
                    "name": "_fromTokenId",
                    "type": "uint256"
                },
                {
                    "indexed": false,
                    "internalType": "uint256",
                    "name": "_toTokenId",
                    "type": "uint256"
                }
            ],
            "name": "BatchMetadataUpdate",
            "type": "event"
        },
        {
            "anonymous": false,
            "inputs": [
                {
                    "indexed": true,
                    "internalType": "address",
                    "name": "delegator",
                    "type": "address"
                },
                {
                    "indexed": true,
                    "internalType": "address",
                    "name": "fromDelegate",
                    "type": "address"
                },
                {
                    "indexed": true,
                    "internalType": "address",
                    "name": "toDelegate",
                    "type": "address"
                }
            ],
            "name": "DelegateChanged",
            "type": "event"
        },
        {
            "anonymous": false,
            "inputs": [
                {
                    "indexed": true,
                    "internalType": "address",
                    "name": "delegate",
                    "type": "address"
                },
                {
                    "indexed": false,
                    "internalType": "uint256",
                    "name": "previousBalance",
                    "type": "uint256"
                },
                {
                    "indexed": false,
                    "internalType": "uint256",
                    "name": "newBalance",
                    "type": "uint256"
                }
            ],
            "name": "DelegateVotesChanged",
            "type": "event"
        },
        {
            "anonymous": false,
            "inputs": [],
            "name": "EIP712DomainChanged",
            "type": "event"
        },
        {
            "anonymous": false,
            "inputs": [
                {
                    "indexed": false,
                    "internalType": "uint256",
                    "name": "_tokenId",
                    "type": "uint256"
                }
            ],
            "name": "MetadataUpdate",
            "type": "event"
        },
        {
            "anonymous": false,
            "inputs": [
                {
                    "indexed": true,
                    "internalType": "bytes32",
                    "name": "role",
                    "type": "bytes32"
                },
                {
                    "indexed": true,
                    "internalType": "bytes32",
                    "name": "previousAdminRole",
                    "type": "bytes32"
                },
                {
                    "indexed": true,
                    "internalType": "bytes32",
                    "name": "newAdminRole",
                    "type": "bytes32"
                }
            ],
            "name": "RoleAdminChanged",
            "type": "event"
        },
        {
            "anonymous": false,
            "inputs": [
                {
                    "indexed": true,
                    "internalType": "bytes32",
                    "name": "role",
                    "type": "bytes32"
                },
                {
                    "indexed": true,
                    "internalType": "address",
                    "name": "account",
                    "type": "address"
                },
                {
                    "indexed": true,
                    "internalType": "address",
                    "name": "sender",
                    "type": "address"
                }
            ],
            "name": "RoleGranted",
            "type": "event"
        },
        {
            "anonymous": false,
            "inputs": [
                {
                    "indexed": true,
                    "internalType": "bytes32",
                    "name": "role",
                    "type": "bytes32"
                },
                {
                    "indexed": true,
                    "internalType": "address",
                    "name": "account",
                    "type": "address"
                },
                {
                    "indexed": true,
                    "internalType": "address",
                    "name": "sender",
                    "type": "address"
                }
            ],
            "name": "RoleRevoked",
            "type": "event"
        },
        {
            "anonymous": false,
            "inputs": [
                {
                    "indexed": true,
                    "internalType": "address",
                    "name": "from",
                    "type": "address"
                },
                {
                    "indexed": true,
                    "internalType": "address",
                    "name": "to",
                    "type": "address"
                },
                {
                    "indexed": true,
                    "internalType": "uint256",
                    "name": "tokenId",
                    "type": "uint256"
                }
            ],
            "name": "Transfer",
            "type": "event"
        },
        {
            "inputs": [],
            "name": "CLOCK_MODE",
            "outputs": [
                {
                    "internalType": "string",
                    "name": "",
                    "type": "string"
                }
            ],
            "stateMutability": "view",
            "type": "function"
        },
        {
            "inputs": [],
            "name": "DEFAULT_ADMIN_ROLE",
            "outputs": [
                {
                    "internalType": "bytes32",
                    "name": "",
                    "type": "bytes32"
                }
            ],
            "stateMutability": "view",
            "type": "function"
        },
        {
            "inputs": [],
            "name": "DOMAIN_SEPARATOR",
            "outputs": [
                {
                    "internalType": "bytes32",
                    "name": "",
                    "type": "bytes32"
                }
            ],
            "stateMutability": "view",
            "type": "function"
        },
        {
            "inputs": [],
            "name": "MINTER_ROLE",
            "outputs": [
                {
                    "internalType": "bytes32",
                    "name": "",
                    "type": "bytes32"
                }
            ],
            "stateMutability": "view",
            "type": "function"
        },
        {
            "inputs": [
                {
                    "internalType": "address",
                    "name": "to",
                    "type": "address"
                },
                {
                    "internalType": "uint256",
                    "name": "tokenId",
                    "type": "uint256"
                }
            ],
            "name": "approve",
            "outputs": [],
            "stateMutability": "nonpayable",
            "type": "function"
        },
        {
            "inputs": [
                {
                    "internalType": "address",
                    "name": "owner",
                    "type": "address"
                }
            ],
            "name": "balanceOf",
            "outputs": [
                {
                    "internalType": "uint256",
                    "name": "",
                    "type": "uint256"
                }
            ],
            "stateMutability": "view",
            "type": "function"
        },
        {
            "inputs": [
                {
                    "internalType": "uint256",
                    "name": "tokenId",
                    "type": "uint256"
                }
            ],
            "name": "burn",
            "outputs": [],
            "stateMutability": "nonpayable",
            "type": "function"
        },
        {
            "inputs": [],
            "name": "clock",
            "outputs": [
                {
                    "internalType": "uint48",
                    "name": "",
                    "type": "uint48"
                }
            ],
            "stateMutability": "view",
            "type": "function"
        },
        {
            "inputs": [
                {
                    "internalType": "uint256",
                    "name": "",
                    "type": "uint256"
                }
            ],
            "name": "colors",
            "outputs": [
                {
                    "internalType": "string",
                    "name": "",
                    "type": "string"
                }
            ],
            "stateMutability": "view",
            "type": "function"
        },
        {
            "inputs": [
                {
                    "internalType": "address",
                    "name": "delegatee",
                    "type": "address"
                }
            ],
            "name": "delegate",
            "outputs": [],
            "stateMutability": "nonpayable",
            "type": "function"
        },
        {
            "inputs": [
                {
                    "internalType": "address",
                    "name": "delegatee",
                    "type": "address"
                },
                {
                    "internalType": "uint256",
                    "name": "nonce",
                    "type": "uint256"
                },
                {
                    "internalType": "uint256",
                    "name": "expiry",
                    "type": "uint256"
                },
                {
                    "internalType": "uint8",
                    "name": "v",
                    "type": "uint8"
                },
                {
                    "internalType": "bytes32",
                    "name": "r",
                    "type": "bytes32"
                },
                {
                    "internalType": "bytes32",
                    "name": "s",
                    "type": "bytes32"
                }
            ],
            "name": "delegateBySig",
            "outputs": [],
            "stateMutability": "nonpayable",
            "type": "function"
        },
        {
            "inputs": [
                {
                    "internalType": "address",
                    "name": "account",
                    "type": "address"
                }
            ],
            "name": "delegates",
            "outputs": [
                {
                    "internalType": "address",
                    "name": "",
                    "type": "address"
                }
            ],
            "stateMutability": "view",
            "type": "function"
        },
        {
            "inputs": [],
            "name": "eip712Domain",
            "outputs": [
                {
                    "internalType": "bytes1",
                    "name": "fields",
                    "type": "bytes1"
                },
                {
                    "internalType": "string",
                    "name": "name",
                    "type": "string"
                },
                {
                    "internalType": "string",
                    "name": "version",
                    "type": "string"
                },
                {
                    "internalType": "uint256",
                    "name": "chainId",
                    "type": "uint256"
                },
                {
                    "internalType": "address",
                    "name": "verifyingContract",
                    "type": "address"
                },
                {
                    "internalType": "bytes32",
                    "name": "salt",
                    "type": "bytes32"
                },
                {
                    "internalType": "uint256[]",
                    "name": "extensions",
                    "type": "uint256[]"
                }
            ],
            "stateMutability": "view",
            "type": "function"
        },
        {
            "inputs": [
                {
                    "internalType": "uint256",
                    "name": "",
                    "type": "uint256"
                }
            ],
            "name": "emojis",
            "outputs": [
                {
                    "internalType": "string",
                    "name": "",
                    "type": "string"
                }
            ],
            "stateMutability": "view",
            "type": "function"
        },
        {
            "inputs": [
                {
                    "internalType": "uint256",
                    "name": "tokenId",
                    "type": "uint256"
                }
            ],
            "name": "getApproved",
            "outputs": [
                {
                    "internalType": "address",
                    "name": "",
                    "type": "address"
                }
            ],
            "stateMutability": "view",
            "type": "function"
        },
        {
            "inputs": [],
            "name": "getNextTokenId",
            "outputs": [
                {
                    "internalType": "uint256",
                    "name": "",
                    "type": "uint256"
                }
            ],
            "stateMutability": "view",
            "type": "function"
        },
        {
            "inputs": [
                {
                    "internalType": "uint256",
                    "name": "timepoint",
                    "type": "uint256"
                }
            ],
            "name": "getPastTotalSupply",
            "outputs": [
                {
                    "internalType": "uint256",
                    "name": "",
                    "type": "uint256"
                }
            ],
            "stateMutability": "view",
            "type": "function"
        },
        {
            "inputs": [
                {
                    "internalType": "address",
                    "name": "account",
                    "type": "address"
                },
                {
                    "internalType": "uint256",
                    "name": "timepoint",
                    "type": "uint256"
                }
            ],
            "name": "getPastVotes",
            "outputs": [
                {
                    "internalType": "uint256",
                    "name": "",
                    "type": "uint256"
                }
            ],
            "stateMutability": "view",
            "type": "function"
        },
        {
            "inputs": [],
            "name": "getRandomNumber",
            "outputs": [
                {
                    "internalType": "uint256",
                    "name": "randomNumber",
                    "type": "uint256"
                }
            ],
            "stateMutability": "view",
            "type": "function"
        },
        {
            "inputs": [
                {
                    "internalType": "bytes32",
                    "name": "role",
                    "type": "bytes32"
                }
            ],
            "name": "getRoleAdmin",
            "outputs": [
                {
                    "internalType": "bytes32",
                    "name": "",
                    "type": "bytes32"
                }
            ],
            "stateMutability": "view",
            "type": "function"
        },
        {
            "inputs": [
                {
                    "internalType": "address",
                    "name": "account",
                    "type": "address"
                }
            ],
            "name": "getVotes",
            "outputs": [
                {
                    "internalType": "uint256",
                    "name": "",
                    "type": "uint256"
                }
            ],
            "stateMutability": "view",
            "type": "function"
        },
        {
            "inputs": [
                {
                    "internalType": "bytes32",
                    "name": "role",
                    "type": "bytes32"
                },
                {
                    "internalType": "address",
                    "name": "account",
                    "type": "address"
                }
            ],
            "name": "grantRole",
            "outputs": [],
            "stateMutability": "nonpayable",
            "type": "function"
        },
        {
            "inputs": [
                {
                    "internalType": "bytes32",
                    "name": "role",
                    "type": "bytes32"
                },
                {
                    "internalType": "address",
                    "name": "account",
                    "type": "address"
                }
            ],
            "name": "hasRole",
            "outputs": [
                {
                    "internalType": "bool",
                    "name": "",
                    "type": "bool"
                }
            ],
            "stateMutability": "view",
            "type": "function"
        },
        {
            "inputs": [
                {
                    "internalType": "address",
                    "name": "owner",
                    "type": "address"
                },
                {
                    "internalType": "address",
                    "name": "operator",
                    "type": "address"
                }
            ],
            "name": "isApprovedForAll",
            "outputs": [
                {
                    "internalType": "bool",
                    "name": "",
                    "type": "bool"
                }
            ],
            "stateMutability": "view",
            "type": "function"
        },
        {
            "inputs": [],
            "name": "name",
            "outputs": [
                {
                    "internalType": "string",
                    "name": "",
                    "type": "string"
                }
            ],
            "stateMutability": "view",
            "type": "function"
        },
        {
            "inputs": [
                {
                    "internalType": "address",
                    "name": "owner",
                    "type": "address"
                }
            ],
            "name": "nonces",
            "outputs": [
                {
                    "internalType": "uint256",
                    "name": "",
                    "type": "uint256"
                }
            ],
            "stateMutability": "view",
            "type": "function"
        },
        {
            "inputs": [
                {
                    "internalType": "uint256",
                    "name": "tokenId",
                    "type": "uint256"
                }
            ],
            "name": "ownerOf",
            "outputs": [
                {
                    "internalType": "address",
                    "name": "",
                    "type": "address"
                }
            ],
            "stateMutability": "view",
            "type": "function"
        },
        {
            "inputs": [
                {
                    "internalType": "bytes32",
                    "name": "role",
                    "type": "bytes32"
                },
                {
                    "internalType": "address",
                    "name": "account",
                    "type": "address"
                }
            ],
            "name": "renounceRole",
            "outputs": [],
            "stateMutability": "nonpayable",
            "type": "function"
        },
        {
            "inputs": [
                {
                    "internalType": "bytes32",
                    "name": "role",
                    "type": "bytes32"
                },
                {
                    "internalType": "address",
                    "name": "account",
                    "type": "address"
                }
            ],
            "name": "revokeRole",
            "outputs": [],
            "stateMutability": "nonpayable",
            "type": "function"
        },
        {
            "inputs": [
                {
                    "internalType": "address",
                    "name": "to",
                    "type": "address"
                }
            ],
            "name": "safeMint",
            "outputs": [],
            "stateMutability": "nonpayable",
            "type": "function"
        },
        {
            "inputs": [
                {
                    "internalType": "address",
                    "name": "from",
                    "type": "address"
                },
                {
                    "internalType": "address",
                    "name": "to",
                    "type": "address"
                },
                {
                    "internalType": "uint256",
                    "name": "tokenId",
                    "type": "uint256"
                }
            ],
            "name": "safeTransferFrom",
            "outputs": [],
            "stateMutability": "nonpayable",
            "type": "function"
        },
        {
            "inputs": [
                {
                    "internalType": "address",
                    "name": "from",
                    "type": "address"
                },
                {
                    "internalType": "address",
                    "name": "to",
                    "type": "address"
                },
                {
                    "internalType": "uint256",
                    "name": "tokenId",
                    "type": "uint256"
                },
                {
                    "internalType": "bytes",
                    "name": "data",
                    "type": "bytes"
                }
            ],
            "name": "safeTransferFrom",
            "outputs": [],
            "stateMutability": "nonpayable",
            "type": "function"
        },
        {
            "inputs": [
                {
                    "internalType": "address",
                    "name": "operator",
                    "type": "address"
                },
                {
                    "internalType": "bool",
                    "name": "approved",
                    "type": "bool"
                }
            ],
            "name": "setApprovalForAll",
            "outputs": [],
            "stateMutability": "nonpayable",
            "type": "function"
        },
        {
            "inputs": [
                {
                    "internalType": "bytes4",
                    "name": "interfaceId",
                    "type": "bytes4"
                }
            ],
            "name": "supportsInterface",
            "outputs": [
                {
                    "internalType": "bool",
                    "name": "",
                    "type": "bool"
                }
            ],
            "stateMutability": "view",
            "type": "function"
        },
        {
            "inputs": [],
            "name": "symbol",
            "outputs": [
                {
                    "internalType": "string",
                    "name": "",
                    "type": "string"
                }
            ],
            "stateMutability": "view",
            "type": "function"
        },
        {
            "inputs": [
                {
                    "internalType": "uint256",
                    "name": "tokenId",
                    "type": "uint256"
                }
            ],
            "name": "tokenURI",
            "outputs": [
                {
                    "internalType": "string",
                    "name": "",
                    "type": "string"
                }
            ],
            "stateMutability": "view",
            "type": "function"
        },
        {
            "inputs": [
                {
                    "internalType": "address",
                    "name": "from",
                    "type": "address"
                },
                {
                    "internalType": "address",
                    "name": "to",
                    "type": "address"
                },
                {
                    "internalType": "uint256",
                    "name": "tokenId",
                    "type": "uint256"
                }
            ],
            "name": "transferFrom",
            "outputs": [],
            "stateMutability": "nonpayable",
            "type": "function"
        },
        {
            "inputs": [
                {
                    "internalType": "uint256",
                    "name": "tokenId",
                    "type": "uint256"
                },
                {
                    "internalType": "uint256",
                    "name": "unicodeId",
                    "type": "uint256"
                },
                {
                    "internalType": "uint256",
                    "name": "colorId",
                    "type": "uint256"
                },
                {
                    "internalType": "uint256",
                    "name": "rarityId",
                    "type": "uint256"
                },
                {
                    "internalType": "uint256",
                    "name": "genderId",
                    "type": "uint256"
                }
            ],
            "name": "updateMetaData",
            "outputs": [],
            "stateMutability": "nonpayable",
            "type": "function"
        }
    ],
    "bytecode": "0x6101606040526001600e553480156200001757600080fd5b506040518060400160405280600581526020017f4d794e46540000000000000000000000000000000000000000000000000000008152506040518060400160405280600181526020017f31000000000000000000000000000000000000000000000000000000000000008152506040518060400160405280600581526020017f4d794e46540000000000000000000000000000000000000000000000000000008152506040518060400160405280600581526020017f4d794e4654000000000000000000000000000000000000000000000000000000815250816000908162000101919062000f52565b50806001908162000113919062000f52565b5050506200012c60068362000a4760201b90919060201c565b61012081815250506200014a60078262000a4760201b90919060201c565b6101408181525050818051906020012060e08181525050808051906020012061010081815250504660a081815250506200018962000a9f60201b60201c565b608081815250503073ffffffffffffffffffffffffffffffffffffffff1660c08173ffffffffffffffffffffffffffffffffffffffff16815250505050620001db6000801b3362000afc60201b60201c565b6200020d7f9f2df0fed2c77648de5860a4cc508cd0818c85b8b8a1ab4ceeef8d981c8956a63362000afc60201b60201c565b600f80600181540180825580915050600190039060005260206000200160006040518060400160405280600481526020017ff09f90a7000000000000000000000000000000000000000000000000000000008152509091909150908162000275919062000f52565b50600f80600181540180825580915050600190039060005260206000200160006040518060400160405280600481526020017ff09f90920000000000000000000000000000000000000000000000000000000081525090919091509081620002de919062000f52565b50600f80600181540180825580915050600190039060005260206000200160006040518060400160405280600481526020017ff09f9088000000000000000000000000000000000000000000000000000000008152509091909150908162000347919062000f52565b50600f80600181540180825580915050600190039060005260206000200160006040518060400160405280600481526020017ff09f90b80000000000000000000000000000000000000000000000000000000081525090919091509081620003b0919062000f52565b50600f80600181540180825580915050600190039060005260206000200160006040518060400160405280600481526020017ff09fa684000000000000000000000000000000000000000000000000000000008152509091909150908162000419919062000f52565b50600f80600181540180825580915050600190039060005260206000200160006040518060400160405280600481526020017ff09f90b6000000000000000000000000000000000000000000000000000000008152509091909150908162000482919062000f52565b50600f80600181540180825580915050600190039060005260206000200160006040518060400160405280600481526020017ff09f90bc0000000000000000000000000000000000000000000000000000000081525090919091509081620004eb919062000f52565b50600f80600181540180825580915050600190039060005260206000200160006040518060400160405280600481526020017ff09f90bb000000000000000000000000000000000000000000000000000000008152509091909150908162000554919062000f52565b50600f80600181540180825580915050600190039060005260206000200160006040518060400160405280600481526020017ff09f90b30000000000000000000000000000000000000000000000000000000081525090919091509081620005bd919062000f52565b50600f80600181540180825580915050600190039060005260206000200160006040518060400160405280600481526020017ff09f9082000000000000000000000000000000000000000000000000000000008152509091909150908162000626919062000f52565b50601080600181540180825580915050600190039060005260206000200160006040518060400160405280600781526020017f2346463030303000000000000000000000000000000000000000000000000000815250909190915090816200068f919062000f52565b50601080600181540180825580915050600190039060005260206000200160006040518060400160405280600781526020017f233030383030300000000000000000000000000000000000000000000000000081525090919091509081620006f8919062000f52565b50601080600181540180825580915050600190039060005260206000200160006040518060400160405280600781526020017f23303030304646000000000000000000000000000000000000000000000000008152509091909150908162000761919062000f52565b50601080600181540180825580915050600190039060005260206000200160006040518060400160405280600781526020017f234646464630300000000000000000000000000000000000000000000000000081525090919091509081620007ca919062000f52565b50601080600181540180825580915050600190039060005260206000200160006040518060400160405280600781526020017f23303030303030000000000000000000000000000000000000000000000000008152509091909150908162000833919062000f52565b50601080600181540180825580915050600190039060005260206000200160006040518060400160405280600781526020017f2346464646464600000000000000000000000000000000000000000000000000815250909190915090816200089c919062000f52565b50601080600181540180825580915050600190039060005260206000200160006040518060400160405280600781526020017f23303046464646000000000000000000000000000000000000000000000000008152509091909150908162000905919062000f52565b50601080600181540180825580915050600190039060005260206000200160006040518060400160405280600781526020017f2346463030464600000000000000000000000000000000000000000000000000815250909190915090816200096e919062000f52565b50601080600181540180825580915050600190039060005260206000200160006040518060400160405280600781526020017f234330433043300000000000000000000000000000000000000000000000000081525090919091509081620009d7919062000f52565b50601080600181540180825580915050600190039060005260206000200160006040518060400160405280600781526020017f23383038303830000000000000000000000000000000000000000000000000008152509091909150908162000a40919062000f52565b506200125c565b600060208351101562000a6d5762000a658362000bee60201b60201c565b905062000a99565b8262000a7f8362000c5b60201b60201c565b600001908162000a90919062000f52565b5060ff60001b90505b92915050565b60007f8b73c3c69bb8fe3d512ecc4cf759cc79239f7b179b0ffacaa9a75d522b39400f60e05161010051463060405160200162000ae1959493929190620010aa565b60405160208183030381529060405280519060200120905090565b62000b0e828262000c6560201b60201c565b62000bea576001600d600084815260200190815260200160002060000160008373ffffffffffffffffffffffffffffffffffffffff1673ffffffffffffffffffffffffffffffffffffffff16815260200190815260200160002060006101000a81548160ff02191690831515021790555062000b8f62000cd060201b60201c565b73ffffffffffffffffffffffffffffffffffffffff168173ffffffffffffffffffffffffffffffffffffffff16837f2f8788117e7eff1d82e926ec794901d17c78024a50270940304540a733656f0d60405160405180910390a45b5050565b600080829050601f8151111562000c3e57826040517f305a27a900000000000000000000000000000000000000000000000000000000815260040162000c35919062001196565b60405180910390fd5b80518162000c4c90620011ec565b60001c1760001b915050919050565b6000819050919050565b6000600d600084815260200190815260200160002060000160008373ffffffffffffffffffffffffffffffffffffffff1673ffffffffffffffffffffffffffffffffffffffff16815260200190815260200160002060009054906101000a900460ff16905092915050565b600033905090565b600081519050919050565b7f4e487b7100000000000000000000000000000000000000000000000000000000600052604160045260246000fd5b7f4e487b7100000000000000000000000000000000000000000000000000000000600052602260045260246000fd5b6000600282049050600182168062000d5a57607f821691505b60208210810362000d705762000d6f62000d12565b5b50919050565b60008190508160005260206000209050919050565b60006020601f8301049050919050565b600082821b905092915050565b60006008830262000dda7fffffffffffffffffffffffffffffffffffffffffffffffffffffffffffffffff8262000d9b565b62000de6868362000d9b565b95508019841693508086168417925050509392505050565b6000819050919050565b6000819050919050565b600062000e3362000e2d62000e278462000dfe565b62000e08565b62000dfe565b9050919050565b6000819050919050565b62000e4f8362000e12565b62000e6762000e5e8262000e3a565b84845462000da8565b825550505050565b600090565b62000e7e62000e6f565b62000e8b81848462000e44565b505050565b5b8181101562000eb35762000ea760008262000e74565b60018101905062000e91565b5050565b601f82111562000f025762000ecc8162000d76565b62000ed78462000d8b565b8101602085101562000ee7578190505b62000eff62000ef68562000d8b565b83018262000e90565b50505b505050565b600082821c905092915050565b600062000f276000198460080262000f07565b1980831691505092915050565b600062000f42838362000f14565b9150826002028217905092915050565b62000f5d8262000cd8565b67ffffffffffffffff81111562000f795762000f7862000ce3565b5b62000f85825462000d41565b62000f9282828562000eb7565b600060209050601f83116001811462000fca576000841562000fb5578287015190505b62000fc1858262000f34565b86555062001031565b601f19841662000fda8662000d76565b60005b82811015620010045784890151825560018201915060208501945060208101905062000fdd565b8683101562001024578489015162001020601f89168262000f14565b8355505b6001600288020188555050505b505050505050565b6000819050919050565b6200104e8162001039565b82525050565b6200105f8162000dfe565b82525050565b600073ffffffffffffffffffffffffffffffffffffffff82169050919050565b6000620010928262001065565b9050919050565b620010a48162001085565b82525050565b600060a082019050620010c1600083018862001043565b620010d0602083018762001043565b620010df604083018662001043565b620010ee606083018562001054565b620010fd608083018462001099565b9695505050505050565b600082825260208201905092915050565b60005b83811015620011385780820151818401526020810190506200111b565b60008484015250505050565b6000601f19601f8301169050919050565b6000620011628262000cd8565b6200116e818562001107565b93506200118081856020860162001118565b6200118b8162001144565b840191505092915050565b60006020820190508181036000830152620011b2818462001155565b905092915050565b600081519050919050565b6000819050602082019050919050565b6000620011e3825162001039565b80915050919050565b6000620011f982620011ba565b826200120584620011c5565b90506200121281620011d5565b925060208210156200125557620012507fffffffffffffffffffffffffffffffffffffffffffffffffffffffffffffffff8360200360080262000d9b565b831692505b5050919050565b60805160a05160c05160e051610100516101205161014051616e7e620012b76000396000610fc001526000610f8c01526000612bdc01526000612bbb01526000611dee01526000611e4401526000611e6d0152616e7e6000f3fe608060405234801561001057600080fd5b50600436106102325760003560e01c806384b0196e11610130578063bd11f69d116100b8578063d547741f1161007c578063d547741f146106ef578063dbdff2c11461070b578063e985e9c514610729578063f3c2f32714610759578063fec1266c1461078957610232565b8063bd11f69d14610637578063c3cda52014610667578063c87b56dd14610683578063caa0f92a146106b3578063d5391393146106d157610232565b806395d89b41116100ff57806395d89b41146105935780639ab24eb0146105b1578063a217fddf146105e1578063a22cb465146105ff578063b88d4fde1461061b57610232565b806384b0196e146104f15780638e539e8c1461051557806391d148541461054557806391ddadf41461057557610232565b80633a46b1a8116101be578063587cde1e11610182578063587cde1e146104155780635c19a95c146104455780636352211e1461046157806370a08231146104915780637ecebe00146104c157610232565b80633a46b1a81461037357806340d097c3146103a357806342842e0e146103bf57806342966c68146103db5780634bf5d7e9146103f757610232565b806323b872dd1161020557806323b872dd146102d1578063248a9ca3146102ed5780632f2ff15d1461031d5780633644e5151461033957806336568abe1461035757610232565b806301ffc9a71461023757806306fdde0314610267578063081812fc14610285578063095ea7b3146102b5575b600080fd5b610251600480360381019061024c9190614729565b6107a5565b60405161025e9190614771565b60405180910390f35b61026f6107b7565b60405161027c919061481c565b60405180910390f35b61029f600480360381019061029a9190614874565b610849565b6040516102ac91906148e2565b60405180910390f35b6102cf60048036038101906102ca9190614929565b61088f565b005b6102eb60048036038101906102e69190614969565b6109a6565b005b610307600480360381019061030291906149f2565b610a06565b6040516103149190614a2e565b60405180910390f35b61033760048036038101906103329190614a49565b610a26565b005b610341610a47565b60405161034e9190614a2e565b60405180910390f35b610371600480360381019061036c9190614a49565b610a56565b005b61038d60048036038101906103889190614929565b610ad9565b60405161039a9190614a98565b60405180910390f35b6103bd60048036038101906103b89190614ab3565b610bab565b005b6103d960048036038101906103d49190614969565b610c5f565b005b6103f560048036038101906103f09190614874565b610c7f565b005b6103ff610cdb565b60405161040c919061481c565b60405180910390f35b61042f600480360381019061042a9190614ab3565b610d69565b60405161043c91906148e2565b60405180910390f35b61045f600480360381019061045a9190614ab3565b610dd2565b005b61047b60048036038101906104769190614874565b610dec565b60405161048891906148e2565b60405180910390f35b6104ab60048036038101906104a69190614ab3565b610e72565b6040516104b89190614a98565b60405180910390f35b6104db60048036038101906104d69190614ab3565b610f29565b6040516104e89190614a98565b60405180910390f35b6104f9610f79565b60405161050c9796959493929190614bd9565b60405180910390f35b61052f600480360381019061052a9190614874565b61107b565b60405161053c9190614a98565b60405180910390f35b61055f600480360381019061055a9190614a49565b61110f565b60405161056c9190614771565b60405180910390f35b61057d61117a565b60405161058a9190614c7e565b60405180910390f35b61059b61118a565b6040516105a8919061481c565b60405180910390f35b6105cb60048036038101906105c69190614ab3565b61121c565b6040516105d89190614a98565b60405180910390f35b6105e961128a565b6040516105f69190614a2e565b60405180910390f35b61061960048036038101906106149190614cc5565b611291565b005b61063560048036038101906106309190614e3a565b6112a7565b005b610651600480360381019061064c9190614874565b611309565b60405161065e919061481c565b60405180910390f35b610681600480360381019061067c9190614ef6565b6113b5565b005b61069d60048036038101906106989190614874565b6114b9565b6040516106aa919061481c565b60405180910390f35b6106bb6114cb565b6040516106c89190614a98565b60405180910390f35b6106d96114d5565b6040516106e69190614a2e565b60405180910390f35b61070960048036038101906107049190614a49565b6114f9565b005b61071361151a565b6040516107209190614a98565b60405180910390f35b610743600480360381019061073e9190614f83565b611522565b6040516107509190614771565b60405180910390f35b610773600480360381019061076e9190614874565b6115b6565b604051610780919061481c565b60405180910390f35b6107a3600480360381019061079e9190614fc3565b611662565b005b60006107b0826117e1565b9050919050565b6060600080546107c69061506d565b80601f01602080910402602001604051908101604052809291908181526020018280546107f29061506d565b801561083f5780601f106108145761010080835404028352916020019161083f565b820191906000526020600020905b81548152906001019060200180831161082257829003601f168201915b5050505050905090565b60006108548261185b565b6004600083815260200190815260200160002060009054906101000a900473ffffffffffffffffffffffffffffffffffffffff169050919050565b600061089a82610dec565b90508073ffffffffffffffffffffffffffffffffffffffff168373ffffffffffffffffffffffffffffffffffffffff160361090a576040517f08c379a000000000000000000000000000000000000000000000000000000000815260040161090190615110565b60405180910390fd5b8073ffffffffffffffffffffffffffffffffffffffff166109296118a6565b73ffffffffffffffffffffffffffffffffffffffff1614806109585750610957816109526118a6565b611522565b5b610997576040517f08c379a000000000000000000000000000000000000000000000000000000000815260040161098e906151a2565b60405180910390fd5b6109a183836118ae565b505050565b6109b76109b16118a6565b82611967565b6109f6576040517f08c379a00000000000000000000000000000000000000000000000000000000081526004016109ed90615234565b60405180910390fd5b610a018383836119fc565b505050565b6000600d6000838152602001908152602001600020600101549050919050565b610a2f82610a06565b610a3881611cf5565b610a428383611d09565b505050565b6000610a51611dea565b905090565b610a5e6118a6565b73ffffffffffffffffffffffffffffffffffffffff168173ffffffffffffffffffffffffffffffffffffffff1614610acb576040517f08c379a0000000000000000000000000000000000000000000000000000000008152600401610ac2906152c6565b60405180910390fd5b610ad58282611ea1565b5050565b6000610ae361117a565b65ffffffffffff168210610b2c576040517f08c379a0000000000000000000000000000000000000000000000000000000008152600401610b2390615332565b60405180910390fd5b610b85610b3883611f83565b600960008673ffffffffffffffffffffffffffffffffffffffff1673ffffffffffffffffffffffffffffffffffffffff168152602001908152602001600020611fd690919063ffffffff16565b7bffffffffffffffffffffffffffffffffffffffffffffffffffffffff16905092915050565b7f9f2df0fed2c77648de5860a4cc508cd0818c85b8b8a1ab4ceeef8d981c8956a6610bd581611cf5565b6000610bdf61151a565b90506000600a82610bf09190615381565b90506000600a8084610c0291906153e1565b610c0c9190615381565b90506000600a606485610c1f91906153e1565b610c299190615381565b9050600060026103e886610c3d91906153e1565b610c479190615381565b9050610c5687858585856120cc565b50505050505050565b610c7a838383604051806020016040528060008152506112a7565b505050565b610c90610c8a6118a6565b82611967565b610ccf576040517f08c379a0000000000000000000000000000000000000000000000000000000008152600401610cc690615234565b60405180910390fd5b610cd881612106565b50565b606043610ce661117a565b65ffffffffffff1614610d2e576040517f08c379a0000000000000000000000000000000000000000000000000000000008152600401610d259061545e565b60405180910390fd5b6040518060400160405280601d81526020017f6d6f64653d626c6f636b6e756d6265722666726f6d3d64656661756c74000000815250905090565b6000600860008373ffffffffffffffffffffffffffffffffffffffff1673ffffffffffffffffffffffffffffffffffffffff16815260200190815260200160002060009054906101000a900473ffffffffffffffffffffffffffffffffffffffff169050919050565b6000610ddc6118a6565b9050610de88183612112565b5050565b600080610df883612226565b9050600073ffffffffffffffffffffffffffffffffffffffff168173ffffffffffffffffffffffffffffffffffffffff1603610e69576040517f08c379a0000000000000000000000000000000000000000000000000000000008152600401610e60906154ca565b60405180910390fd5b80915050919050565b60008073ffffffffffffffffffffffffffffffffffffffff168273ffffffffffffffffffffffffffffffffffffffff1603610ee2576040517f08c379a0000000000000000000000000000000000000000000000000000000008152600401610ed99061555c565b60405180910390fd5b600360008373ffffffffffffffffffffffffffffffffffffffff1673ffffffffffffffffffffffffffffffffffffffff168152602001908152602001600020549050919050565b6000610f72600b60008473ffffffffffffffffffffffffffffffffffffffff1673ffffffffffffffffffffffffffffffffffffffff168152602001908152602001600020612263565b9050919050565b600060608060008060006060610fb960067f000000000000000000000000000000000000000000000000000000000000000061227190919063ffffffff16565b610fed60077f000000000000000000000000000000000000000000000000000000000000000061227190919063ffffffff16565b46306000801b600067ffffffffffffffff81111561100e5761100d614d0f565b5b60405190808252806020026020018201604052801561103c5781602001602082028036833780820191505090505b507f0f00000000000000000000000000000000000000000000000000000000000000959493929190965096509650965096509650965090919293949596565b600061108561117a565b65ffffffffffff1682106110ce576040517f08c379a00000000000000000000000000000000000000000000000000000000081526004016110c590615332565b60405180910390fd5b6110ea6110da83611f83565b600a611fd690919063ffffffff16565b7bffffffffffffffffffffffffffffffffffffffffffffffffffffffff169050919050565b6000600d600084815260200190815260200160002060000160008373ffffffffffffffffffffffffffffffffffffffff1673ffffffffffffffffffffffffffffffffffffffff16815260200190815260200160002060009054906101000a900460ff16905092915050565b600061118543612321565b905090565b6060600180546111999061506d565b80601f01602080910402602001604051908101604052809291908181526020018280546111c59061506d565b80156112125780601f106111e757610100808354040283529160200191611212565b820191906000526020600020905b8154815290600101906020018083116111f557829003601f168201915b5050505050905090565b6000611265600960008473ffffffffffffffffffffffffffffffffffffffff1673ffffffffffffffffffffffffffffffffffffffff168152602001908152602001600020612376565b7bffffffffffffffffffffffffffffffffffffffffffffffffffffffff169050919050565b6000801b81565b6112a361129c6118a6565b83836123e0565b5050565b6112b86112b26118a6565b83611967565b6112f7576040517f08c379a00000000000000000000000000000000000000000000000000000000081526004016112ee90615234565b60405180910390fd5b6113038484848461254c565b50505050565b6010818154811061131957600080fd5b9060005260206000200160009150905080546113349061506d565b80601f01602080910402602001604051908101604052809291908181526020018280546113609061506d565b80156113ad5780601f10611382576101008083540402835291602001916113ad565b820191906000526020600020905b81548152906001019060200180831161139057829003601f168201915b505050505081565b834211156113f8576040517f08c379a00000000000000000000000000000000000000000000000000000000081526004016113ef906155c8565b60405180910390fd5b600061145a6114527fe48329057bfd03d55e49b547132e39cffd9c1820ad7b9d4c5307691425d15adf89898960405160200161143794939291906155e8565b604051602081830303815290604052805190602001206125a8565b8585856125c2565b9050611465816125ed565b86146114a6576040517f08c379a000000000000000000000000000000000000000000000000000000000815260040161149d90615679565b60405180910390fd5b6114b08188612112565b50505050505050565b60606114c48261264b565b9050919050565b6000600e54905090565b7f9f2df0fed2c77648de5860a4cc508cd0818c85b8b8a1ab4ceeef8d981c8956a681565b61150282610a06565b61150b81611cf5565b6115158383611ea1565b505050565b600044905090565b6000600560008473ffffffffffffffffffffffffffffffffffffffff1673ffffffffffffffffffffffffffffffffffffffff16815260200190815260200160002060008373ffffffffffffffffffffffffffffffffffffffff1673ffffffffffffffffffffffffffffffffffffffff16815260200190815260200160002060009054906101000a900460ff16905092915050565b600f81815481106115c657600080fd5b9060005260206000200160009150905080546115e19061506d565b80601f016020809104026020016040519081016040528092919081815260200182805461160d9061506d565b801561165a5780601f1061162f5761010080835404028352916020019161165a565b820191906000526020600020905b81548152906001019060200180831161163d57829003601f168201915b505050505081565b600061166e858561275d565b9050606080600085036116b8576040518060400160405280600481526020017f726172650000000000000000000000000000000000000000000000000000000081525091506116f1565b6040518060400160405280600681526020017f636f6d6d6f6e000000000000000000000000000000000000000000000000000081525091505b60008403611736576040518060400160405280600481526020017f6d616c6500000000000000000000000000000000000000000000000000000000815250905061176f565b6040518060400160405280600681526020017f66656d616c65000000000000000000000000000000000000000000000000000081525090505b60006117a561177d85612850565b838560405160200161179193929190615a65565b604051602081830303815290604052612850565b90506000816040516020016117ba9190615b66565b60405160208183030381529060405290506117d58a826129b3565b50505050505050505050565b60007f7965db0b000000000000000000000000000000000000000000000000000000007bffffffffffffffffffffffffffffffffffffffffffffffffffffffff1916827bffffffffffffffffffffffffffffffffffffffffffffffffffffffff19161480611854575061185382612a57565b5b9050919050565b61186481612ab8565b6118a3576040517f08c379a000000000000000000000000000000000000000000000000000000000815260040161189a906154ca565b60405180910390fd5b50565b600033905090565b816004600083815260200190815260200160002060006101000a81548173ffffffffffffffffffffffffffffffffffffffff021916908373ffffffffffffffffffffffffffffffffffffffff160217905550808273ffffffffffffffffffffffffffffffffffffffff1661192183610dec565b73ffffffffffffffffffffffffffffffffffffffff167f8c5be1e5ebec7d5bd14f71427d1e84f3dd0314c0f7b2291e5b200ac8c7c3b92560405160405180910390a45050565b60008061197383610dec565b90508073ffffffffffffffffffffffffffffffffffffffff168473ffffffffffffffffffffffffffffffffffffffff1614806119b557506119b48185611522565b5b806119f357508373ffffffffffffffffffffffffffffffffffffffff166119db84610849565b73ffffffffffffffffffffffffffffffffffffffff16145b91505092915050565b8273ffffffffffffffffffffffffffffffffffffffff16611a1c82610dec565b73ffffffffffffffffffffffffffffffffffffffff1614611a72576040517f08c379a0000000000000000000000000000000000000000000000000000000008152600401611a6990615bfa565b60405180910390fd5b600073ffffffffffffffffffffffffffffffffffffffff168273ffffffffffffffffffffffffffffffffffffffff1603611ae1576040517f08c379a0000000000000000000000000000000000000000000000000000000008152600401611ad890615c8c565b60405180910390fd5b611aee8383836001612af9565b8273ffffffffffffffffffffffffffffffffffffffff16611b0e82610dec565b73ffffffffffffffffffffffffffffffffffffffff1614611b64576040517f08c379a0000000000000000000000000000000000000000000000000000000008152600401611b5b90615bfa565b60405180910390fd5b6004600082815260200190815260200160002060006101000a81549073ffffffffffffffffffffffffffffffffffffffff02191690556001600360008573ffffffffffffffffffffffffffffffffffffffff1673ffffffffffffffffffffffffffffffffffffffff168152602001908152602001600020600082825403925050819055506001600360008473ffffffffffffffffffffffffffffffffffffffff1673ffffffffffffffffffffffffffffffffffffffff16815260200190815260200160002060008282540192505081905550816002600083815260200190815260200160002060006101000a81548173ffffffffffffffffffffffffffffffffffffffff021916908373ffffffffffffffffffffffffffffffffffffffff160217905550808273ffffffffffffffffffffffffffffffffffffffff168473ffffffffffffffffffffffffffffffffffffffff167fddf252ad1be2c89b69c2b068fc378daa952ba7f163c4a11628f55a4df523b3ef60405160405180910390a4611cf08383836001612aff565b505050565b611d0681611d016118a6565b612b11565b50565b611d13828261110f565b611de6576001600d600084815260200190815260200160002060000160008373ffffffffffffffffffffffffffffffffffffffff1673ffffffffffffffffffffffffffffffffffffffff16815260200190815260200160002060006101000a81548160ff021916908315150217905550611d8b6118a6565b73ffffffffffffffffffffffffffffffffffffffff168173ffffffffffffffffffffffffffffffffffffffff16837f2f8788117e7eff1d82e926ec794901d17c78024a50270940304540a733656f0d60405160405180910390a45b5050565b60007f000000000000000000000000000000000000000000000000000000000000000073ffffffffffffffffffffffffffffffffffffffff163073ffffffffffffffffffffffffffffffffffffffff16148015611e6657507f000000000000000000000000000000000000000000000000000000000000000046145b15611e93577f00000000000000000000000000000000000000000000000000000000000000009050611e9e565b611e9b612b96565b90505b90565b611eab828261110f565b15611f7f576000600d600084815260200190815260200160002060000160008373ffffffffffffffffffffffffffffffffffffffff1673ffffffffffffffffffffffffffffffffffffffff16815260200190815260200160002060006101000a81548160ff021916908315150217905550611f246118a6565b73ffffffffffffffffffffffffffffffffffffffff168173ffffffffffffffffffffffffffffffffffffffff16837ff6391f5c32d9c69d2a47ea670b442974b53935d1edc7fd64eb21e047a839171b60405160405180910390a45b5050565b600063ffffffff8016821115611fce576040517f08c379a0000000000000000000000000000000000000000000000000000000008152600401611fc590615d1e565b60405180910390fd5b819050919050565b600080836000018054905090506000808290506005831115612058576000611ffd84612c2c565b846120089190615d3e565b90506120178760000182612d25565b60000160009054906101000a900463ffffffff1663ffffffff168663ffffffff16101561204657809150612056565b6001816120539190615d72565b92505b505b600061206987600001878585612d3a565b9050600081146120bd5761208c876000016001836120879190615d3e565b612d25565b60000160049054906101000a90047bffffffffffffffffffffffffffffffffffffffffffffffffffffffff166120c0565b60005b94505050505092915050565b6120d885600e54612dad565b6120e7600e5485858585611662565b600e60008154809291906120fa90615da6565b91905055505050505050565b61210f81612dcb565b50565b600061211d83610d69565b905081600860008573ffffffffffffffffffffffffffffffffffffffff1673ffffffffffffffffffffffffffffffffffffffff16815260200190815260200160002060006101000a81548173ffffffffffffffffffffffffffffffffffffffff021916908373ffffffffffffffffffffffffffffffffffffffff1602179055508173ffffffffffffffffffffffffffffffffffffffff168173ffffffffffffffffffffffffffffffffffffffff168473ffffffffffffffffffffffffffffffffffffffff167f3134e8a2e6d97e929a7e54011ea5485d7d196dd5f0ba4d4ef95803e8e3fc257f60405160405180910390a4612221818361221c86612e1e565b612e30565b505050565b60006002600083815260200190815260200160002060009054906101000a900473ffffffffffffffffffffffffffffffffffffffff169050919050565b600081600001549050919050565b606060ff60001b831461228e57612287836130b1565b905061231b565b81805461229a9061506d565b80601f01602080910402602001604051908101604052809291908181526020018280546122c69061506d565b80156123135780601f106122e857610100808354040283529160200191612313565b820191906000526020600020905b8154815290600101906020018083116122f657829003601f168201915b505050505090505b92915050565b600065ffffffffffff801682111561236e576040517f08c379a000000000000000000000000000000000000000000000000000000000815260040161236590615e60565b60405180910390fd5b819050919050565b60008082600001805490509050600081146123d5576123a48360000160018361239f9190615d3e565b612d25565b60000160049054906101000a90047bffffffffffffffffffffffffffffffffffffffffffffffffffffffff166123d8565b60005b915050919050565b8173ffffffffffffffffffffffffffffffffffffffff168373ffffffffffffffffffffffffffffffffffffffff160361244e576040517f08c379a000000000000000000000000000000000000000000000000000000000815260040161244590615ecc565b60405180910390fd5b80600560008573ffffffffffffffffffffffffffffffffffffffff1673ffffffffffffffffffffffffffffffffffffffff16815260200190815260200160002060008473ffffffffffffffffffffffffffffffffffffffff1673ffffffffffffffffffffffffffffffffffffffff16815260200190815260200160002060006101000a81548160ff0219169083151502179055508173ffffffffffffffffffffffffffffffffffffffff168373ffffffffffffffffffffffffffffffffffffffff167f17307eab39ab6107e8899845ad3d59bd9653f200f220920489ca2b5937696c318360405161253f9190614771565b60405180910390a3505050565b6125578484846119fc565b61256384848484613125565b6125a2576040517f08c379a000000000000000000000000000000000000000000000000000000000815260040161259990615f5e565b60405180910390fd5b50505050565b60006125bb6125b5611dea565b836132ac565b9050919050565b60008060006125d3878787876132ed565b915091506125e0816133cf565b8192505050949350505050565b600080600b60008473ffffffffffffffffffffffffffffffffffffffff1673ffffffffffffffffffffffffffffffffffffffff168152602001908152602001600020905061263a81612263565b915061264581613535565b50919050565b60606126568261185b565b6000600c600084815260200190815260200160002080546126769061506d565b80601f01602080910402602001604051908101604052809291908181526020018280546126a29061506d565b80156126ef5780601f106126c4576101008083540402835291602001916126ef565b820191906000526020600020905b8154815290600101906020018083116126d257829003601f168201915b50505050509050600061270061354b565b90506000815103612715578192505050612758565b60008251111561274a578082604051602001612732929190615f7e565b60405160208183030381529060405292505050612758565b61275384613562565b925050505b919050565b606060006010838154811061277557612774615fa2565b5b9060005260206000200160405160200161278f919061620b565b60405160208183030381529060405290506000600f85815481106127b6576127b5615fa2565b5b906000526020600020016040516020016127d0919061631c565b604051602081830303815290604052905060006040518060400160405280600681526020017f3c2f7376673e00000000000000000000000000000000000000000000000000008152509050600083838360405160200161283293929190616349565b60405160208183030381529060405290508094505050505092915050565b60606000825103612872576040518060200160405280600081525090506129ae565b6000604051806060016040528060408152602001616e0960409139905060006003600285516128a19190615d72565b6128ab91906153e1565b60046128b7919061637a565b67ffffffffffffffff8111156128d0576128cf614d0f565b5b6040519080825280601f01601f1916602001820160405280156129025781602001600182028036833780820191505090505b509050600182016020820185865187015b8082101561296e576003820191508151603f8160121c168501518453600184019350603f81600c1c168501518453600184019350603f8160061c168501518453600184019350603f8116850151845360018401935050612913565b505060038651066001811461298a576002811461299d576129a5565b603d6001830353603d60028303536129a5565b603d60018303535b50505080925050505b919050565b6129bc82612ab8565b6129fb576040517f08c379a00000000000000000000000000000000000000000000000000000000081526004016129f29061642e565b60405180910390fd5b80600c60008481526020019081526020016000209081612a1b91906165e5565b507ff8e1a15aba9398e019f0b49df1a4fde98ee17ae345cb5f6b5e2c27f5033e8ce782604051612a4b9190614a98565b60405180910390a15050565b6000634906490660e01b7bffffffffffffffffffffffffffffffffffffffffffffffffffffffff1916827bffffffffffffffffffffffffffffffffffffffffffffffffffffffff19161480612ab15750612ab0826135ca565b5b9050919050565b60008073ffffffffffffffffffffffffffffffffffffffff16612ada83612226565b73ffffffffffffffffffffffffffffffffffffffff1614159050919050565b50505050565b612b0b848484846136ac565b50505050565b612b1b828261110f565b612b9257612b28816136c9565b612b368360001c60206136f6565b604051602001612b4792919061674f565b6040516020818303038152906040526040517f08c379a0000000000000000000000000000000000000000000000000000000008152600401612b89919061481c565b60405180910390fd5b5050565b60007f8b73c3c69bb8fe3d512ecc4cf759cc79239f7b179b0ffacaa9a75d522b39400f7f00000000000000000000000000000000000000000000000000000000000000007f00000000000000000000000000000000000000000000000000000000000000004630604051602001612c11959493929190616789565b60405160208183030381529060405280519060200120905090565b6000808203612c3e5760009050612d20565b60006001612c4b84613932565b901c6001901b90506001818481612c6557612c64615352565b5b048201901c90506001818481612c7e57612c7d615352565b5b048201901c90506001818481612c9757612c96615352565b5b048201901c90506001818481612cb057612caf615352565b5b048201901c90506001818481612cc957612cc8615352565b5b048201901c90506001818481612ce257612ce1615352565b5b048201901c90506001818481612cfb57612cfa615352565b5b048201901c9050612d1c81828581612d1657612d15615352565b5b04613a13565b9150505b919050565b60008260005281602060002001905092915050565b60005b81831015612da2576000612d518484613a2c565b90508463ffffffff16612d648783612d25565b60000160009054906101000a900463ffffffff1663ffffffff161115612d8c57809250612d9c565b600181612d999190615d72565b93505b50612d3d565b819050949350505050565b612dc7828260405180602001604052806000815250613a52565b5050565b612dd481613aad565b6000600c60008381526020019081526020016000208054612df49061506d565b905014612e1b57600c60008281526020019081526020016000206000612e1a9190614660565b5b50565b6000612e2982610e72565b9050919050565b8173ffffffffffffffffffffffffffffffffffffffff168373ffffffffffffffffffffffffffffffffffffffff1614158015612e6c5750600081115b156130ac57600073ffffffffffffffffffffffffffffffffffffffff168373ffffffffffffffffffffffffffffffffffffffff1614612f8e57600080612efb600960008773ffffffffffffffffffffffffffffffffffffffff1673ffffffffffffffffffffffffffffffffffffffff168152602001908152602001600020613bfb612ef686613c11565b613c7c565b7bffffffffffffffffffffffffffffffffffffffffffffffffffffffff1691507bffffffffffffffffffffffffffffffffffffffffffffffffffffffff1691508473ffffffffffffffffffffffffffffffffffffffff167fdec2bacdd2f05b59de34da9b523dff8be42e5e38e818c82fdb0bae774387a7248383604051612f839291906167dc565b60405180910390a250505b600073ffffffffffffffffffffffffffffffffffffffff168273ffffffffffffffffffffffffffffffffffffffff16146130ab57600080613018600960008673ffffffffffffffffffffffffffffffffffffffff1673ffffffffffffffffffffffffffffffffffffffff168152602001908152602001600020613ccc61301386613c11565b613c7c565b7bffffffffffffffffffffffffffffffffffffffffffffffffffffffff1691507bffffffffffffffffffffffffffffffffffffffffffffffffffffffff1691508373ffffffffffffffffffffffffffffffffffffffff167fdec2bacdd2f05b59de34da9b523dff8be42e5e38e818c82fdb0bae774387a72483836040516130a09291906167dc565b60405180910390a250505b5b505050565b606060006130be83613ce2565b90506000602067ffffffffffffffff8111156130dd576130dc614d0f565b5b6040519080825280601f01601f19166020018201604052801561310f5781602001600182028036833780820191505090505b5090508181528360208201528092505050919050565b60006131468473ffffffffffffffffffffffffffffffffffffffff16613d32565b1561329f578373ffffffffffffffffffffffffffffffffffffffff1663150b7a0261316f6118a6565b8786866040518563ffffffff1660e01b8152600401613191949392919061685a565b6020604051808303816000875af19250505080156131cd57506040513d601f19601f820116820180604052508101906131ca91906168bb565b60015b61324f573d80600081146131fd576040519150601f19603f3d011682016040523d82523d6000602084013e613202565b606091505b506000815103613247576040517f08c379a000000000000000000000000000000000000000000000000000000000815260040161323e90615f5e565b60405180910390fd5b805181602001fd5b63150b7a0260e01b7bffffffffffffffffffffffffffffffffffffffffffffffffffffffff1916817bffffffffffffffffffffffffffffffffffffffffffffffffffffffff1916149150506132a4565b600190505b949350505050565b60006040517f190100000000000000000000000000000000000000000000000000000000000081528360028201528260228201526042812091505092915050565b6000807f7fffffffffffffffffffffffffffffff5d576e7357a4501ddfe92f46681b20a08360001c11156133285760006003915091506133c6565b60006001878787876040516000815260200160405260405161334d94939291906168f7565b6020604051602081039080840390855afa15801561336f573d6000803e3d6000fd5b505050602060405103519050600073ffffffffffffffffffffffffffffffffffffffff168173ffffffffffffffffffffffffffffffffffffffff16036133bd576000600192509250506133c6565b80600092509250505b94509492505050565b600060048111156133e3576133e261693c565b5b8160048111156133f6576133f561693c565b5b031561353257600160048111156134105761340f61693c565b5b8160048111156134235761342261693c565b5b03613463576040517f08c379a000000000000000000000000000000000000000000000000000000000815260040161345a906169b7565b60405180910390fd5b600260048111156134775761347661693c565b5b81600481111561348a5761348961693c565b5b036134ca576040517f08c379a00000000000000000000000000000000000000000000000000000000081526004016134c190616a23565b60405180910390fd5b600360048111156134de576134dd61693c565b5b8160048111156134f1576134f061693c565b5b03613531576040517f08c379a000000000000000000000000000000000000000000000000000000000815260040161352890616ab5565b60405180910390fd5b5b50565b6001816000016000828254019250508190555050565b606060405180602001604052806000815250905090565b606061356d8261185b565b600061357761354b565b9050600081511161359757604051806020016040528060008152506135c2565b806135a184613d55565b6040516020016135b2929190615f7e565b6040516020818303038152906040525b915050919050565b60007f80ac58cd000000000000000000000000000000000000000000000000000000007bffffffffffffffffffffffffffffffffffffffffffffffffffffffff1916827bffffffffffffffffffffffffffffffffffffffffffffffffffffffff1916148061369557507f5b5e139f000000000000000000000000000000000000000000000000000000007bffffffffffffffffffffffffffffffffffffffffffffffffffffffff1916827bffffffffffffffffffffffffffffffffffffffffffffffffffffffff1916145b806136a557506136a482613e23565b5b9050919050565b6136b7848483613e8d565b6136c384848484613f47565b50505050565b60606136ef8273ffffffffffffffffffffffffffffffffffffffff16601460ff166136f6565b9050919050565b606060006002836002613709919061637a565b6137139190615d72565b67ffffffffffffffff81111561372c5761372b614d0f565b5b6040519080825280601f01601f19166020018201604052801561375e5781602001600182028036833780820191505090505b5090507f30000000000000000000000000000000000000000000000000000000000000008160008151811061379657613795615fa2565b5b60200101907effffffffffffffffffffffffffffffffffffffffffffffffffffffffffffff1916908160001a9053507f7800000000000000000000000000000000000000000000000000000000000000816001815181106137fa576137f9615fa2565b5b60200101907effffffffffffffffffffffffffffffffffffffffffffffffffffffffffffff1916908160001a9053506000600184600261383a919061637a565b6138449190615d72565b90505b60018111156138e4577f3031323334353637383961626364656600000000000000000000000000000000600f86166010811061388657613885615fa2565b5b1a60f81b82828151811061389d5761389c615fa2565b5b60200101907effffffffffffffffffffffffffffffffffffffffffffffffffffffffffffff1916908160001a905350600485901c9450806138dd90616ad5565b9050613847565b5060008414613928576040517f08c379a000000000000000000000000000000000000000000000000000000000815260040161391f90616b4a565b60405180910390fd5b8091505092915050565b600080600090506000608084901c111561395457608083901c92506080810190505b6000604084901c111561396f57604083901c92506040810190505b6000602084901c111561398a57602083901c92506020810190505b6000601084901c11156139a557601083901c92506010810190505b6000600884901c11156139c057600883901c92506008810190505b6000600484901c11156139db57600483901c92506004810190505b6000600284901c11156139f657600283901c92506002810190505b6000600184901c1115613a0a576001810190505b80915050919050565b6000818310613a225781613a24565b825b905092915050565b60006002828418613a3d91906153e1565b828416613a4a9190615d72565b905092915050565b613a5c8383613f4d565b613a696000848484613125565b613aa8576040517f08c379a0000000000000000000000000000000000000000000000000000000008152600401613a9f90615f5e565b60405180910390fd5b505050565b6000613ab882610dec565b9050613ac8816000846001612af9565b613ad182610dec565b90506004600083815260200190815260200160002060006101000a81549073ffffffffffffffffffffffffffffffffffffffff02191690556001600360008373ffffffffffffffffffffffffffffffffffffffff1673ffffffffffffffffffffffffffffffffffffffff168152602001908152602001600020600082825403925050819055506002600083815260200190815260200160002060006101000a81549073ffffffffffffffffffffffffffffffffffffffff021916905581600073ffffffffffffffffffffffffffffffffffffffff168273ffffffffffffffffffffffffffffffffffffffff167fddf252ad1be2c89b69c2b068fc378daa952ba7f163c4a11628f55a4df523b3ef60405160405180910390a4613bf7816000846001612aff565b5050565b60008183613c099190616b92565b905092915050565b60007bffffffffffffffffffffffffffffffffffffffffffffffffffffffff8016821115613c74576040517f08c379a0000000000000000000000000000000000000000000000000000000008152600401613c6b90616c54565b60405180910390fd5b819050919050565b600080613cc0613c9a613c8d61117a565b65ffffffffffff16611f83565b613cb0613ca688612376565b868863ffffffff16565b8761416a9092919063ffffffff16565b91509150935093915050565b60008183613cda9190616c74565b905092915050565b60008060ff8360001c169050601f811115613d29576040517fb3512b0c00000000000000000000000000000000000000000000000000000000815260040160405180910390fd5b80915050919050565b6000808273ffffffffffffffffffffffffffffffffffffffff163b119050919050565b606060006001613d6484614187565b01905060008167ffffffffffffffff811115613d8357613d82614d0f565b5b6040519080825280601f01601f191660200182016040528015613db55781602001600182028036833780820191505090505b509050600082602001820190505b600115613e18578080600190039150507f3031323334353637383961626364656600000000000000000000000000000000600a86061a8153600a8581613e0c57613e0b615352565b5b04945060008503613dc3575b819350505050919050565b60007f01ffc9a7000000000000000000000000000000000000000000000000000000007bffffffffffffffffffffffffffffffffffffffffffffffffffffffff1916827bffffffffffffffffffffffffffffffffffffffffffffffffffffffff1916149050919050565b600073ffffffffffffffffffffffffffffffffffffffff168373ffffffffffffffffffffffffffffffffffffffff1603613eda57613ed7600a613ccc613ed284613c11565b613c7c565b50505b600073ffffffffffffffffffffffffffffffffffffffff168273ffffffffffffffffffffffffffffffffffffffff1603613f2757613f24600a613bfb613f1f84613c11565b613c7c565b50505b613f42613f3384610d69565b613f3c84610d69565b83612e30565b505050565b50505050565b600073ffffffffffffffffffffffffffffffffffffffff168273ffffffffffffffffffffffffffffffffffffffff1603613fbc576040517f08c379a0000000000000000000000000000000000000000000000000000000008152600401613fb390616d10565b60405180910390fd5b613fc581612ab8565b15614005576040517f08c379a0000000000000000000000000000000000000000000000000000000008152600401613ffc90616d7c565b60405180910390fd5b614013600083836001612af9565b61401c81612ab8565b1561405c576040517f08c379a000000000000000000000000000000000000000000000000000000000815260040161405390616d7c565b60405180910390fd5b6001600360008473ffffffffffffffffffffffffffffffffffffffff1673ffffffffffffffffffffffffffffffffffffffff16815260200190815260200160002060008282540192505081905550816002600083815260200190815260200160002060006101000a81548173ffffffffffffffffffffffffffffffffffffffff021916908373ffffffffffffffffffffffffffffffffffffffff160217905550808273ffffffffffffffffffffffffffffffffffffffff16600073ffffffffffffffffffffffffffffffffffffffff167fddf252ad1be2c89b69c2b068fc378daa952ba7f163c4a11628f55a4df523b3ef60405160405180910390a4614166600083836001612aff565b5050565b60008061417b8560000185856142da565b91509150935093915050565b600080600090507a184f03e93ff9f4daa797ed6e38ed64bf6a1f01000000000000000083106141e5577a184f03e93ff9f4daa797ed6e38ed64bf6a1f01000000000000000083816141db576141da615352565b5b0492506040810190505b6d04ee2d6d415b85acef81000000008310614222576d04ee2d6d415b85acef8100000000838161421857614217615352565b5b0492506020810190505b662386f26fc10000831061425157662386f26fc10000838161424757614246615352565b5b0492506010810190505b6305f5e100831061427a576305f5e10083816142705761426f615352565b5b0492506008810190505b612710831061429f57612710838161429557614294615352565b5b0492506004810190505b606483106142c257606483816142b8576142b7615352565b5b0492506002810190505b600a83106142d1576001810190505b80915050919050565b6000806000858054905090506000811115614570576000614307876001846143029190615d3e565b612d25565b6040518060400160405290816000820160009054906101000a900463ffffffff1663ffffffff1663ffffffff1681526020016000820160049054906101000a90047bffffffffffffffffffffffffffffffffffffffffffffffffffffffff167bffffffffffffffffffffffffffffffffffffffffffffffffffffffff167bffffffffffffffffffffffffffffffffffffffffffffffffffffffff168152505090508563ffffffff16816000015163ffffffff1611156143fb576040517f08c379a00000000000000000000000000000000000000000000000000000000081526004016143f290616de8565b60405180910390fd5b8563ffffffff16816000015163ffffffff160361447f5784614429886001856144249190615d3e565b612d25565b60000160046101000a8154817bffffffffffffffffffffffffffffffffffffffffffffffffffffffff02191690837bffffffffffffffffffffffffffffffffffffffffffffffffffffffff16021790555061455f565b8660405180604001604052808863ffffffff168152602001877bffffffffffffffffffffffffffffffffffffffffffffffffffffffff168152509080600181540180825580915050600190039060005260206000200160009091909190915060008201518160000160006101000a81548163ffffffff021916908363ffffffff16021790555060208201518160000160046101000a8154817bffffffffffffffffffffffffffffffffffffffffffffffffffffffff02191690837bffffffffffffffffffffffffffffffffffffffffffffffffffffffff16021790555050505b806020015185935093505050614658565b8560405180604001604052808763ffffffff168152602001867bffffffffffffffffffffffffffffffffffffffffffffffffffffffff168152509080600181540180825580915050600190039060005260206000200160009091909190915060008201518160000160006101000a81548163ffffffff021916908363ffffffff16021790555060208201518160000160046101000a8154817bffffffffffffffffffffffffffffffffffffffffffffffffffffffff02191690837bffffffffffffffffffffffffffffffffffffffffffffffffffffffff160217905550505060008492509250505b935093915050565b50805461466c9061506d565b6000825580601f1061467e575061469d565b601f01602090049060005260206000209081019061469c91906146a0565b5b50565b5b808211156146b95760008160009055506001016146a1565b5090565b6000604051905090565b600080fd5b600080fd5b60007fffffffff0000000000000000000000000000000000000000000000000000000082169050919050565b614706816146d1565b811461471157600080fd5b50565b600081359050614723816146fd565b92915050565b60006020828403121561473f5761473e6146c7565b5b600061474d84828501614714565b91505092915050565b60008115159050919050565b61476b81614756565b82525050565b60006020820190506147866000830184614762565b92915050565b600081519050919050565b600082825260208201905092915050565b60005b838110156147c65780820151818401526020810190506147ab565b60008484015250505050565b6000601f19601f8301169050919050565b60006147ee8261478c565b6147f88185614797565b93506148088185602086016147a8565b614811816147d2565b840191505092915050565b6000602082019050818103600083015261483681846147e3565b905092915050565b6000819050919050565b6148518161483e565b811461485c57600080fd5b50565b60008135905061486e81614848565b92915050565b60006020828403121561488a576148896146c7565b5b60006148988482850161485f565b91505092915050565b600073ffffffffffffffffffffffffffffffffffffffff82169050919050565b60006148cc826148a1565b9050919050565b6148dc816148c1565b82525050565b60006020820190506148f760008301846148d3565b92915050565b614906816148c1565b811461491157600080fd5b50565b600081359050614923816148fd565b92915050565b600080604083850312156149405761493f6146c7565b5b600061494e85828601614914565b925050602061495f8582860161485f565b9150509250929050565b600080600060608486031215614982576149816146c7565b5b600061499086828701614914565b93505060206149a186828701614914565b92505060406149b28682870161485f565b9150509250925092565b6000819050919050565b6149cf816149bc565b81146149da57600080fd5b50565b6000813590506149ec816149c6565b92915050565b600060208284031215614a0857614a076146c7565b5b6000614a16848285016149dd565b91505092915050565b614a28816149bc565b82525050565b6000602082019050614a436000830184614a1f565b92915050565b60008060408385031215614a6057614a5f6146c7565b5b6000614a6e858286016149dd565b9250506020614a7f85828601614914565b9150509250929050565b614a928161483e565b82525050565b6000602082019050614aad6000830184614a89565b92915050565b600060208284031215614ac957614ac86146c7565b5b6000614ad784828501614914565b91505092915050565b60007fff0000000000000000000000000000000000000000000000000000000000000082169050919050565b614b1581614ae0565b82525050565b600081519050919050565b600082825260208201905092915050565b6000819050602082019050919050565b614b508161483e565b82525050565b6000614b628383614b47565b60208301905092915050565b6000602082019050919050565b6000614b8682614b1b565b614b908185614b26565b9350614b9b83614b37565b8060005b83811015614bcc578151614bb38882614b56565b9750614bbe83614b6e565b925050600181019050614b9f565b5085935050505092915050565b600060e082019050614bee600083018a614b0c565b8181036020830152614c0081896147e3565b90508181036040830152614c1481886147e3565b9050614c236060830187614a89565b614c3060808301866148d3565b614c3d60a0830185614a1f565b81810360c0830152614c4f8184614b7b565b905098975050505050505050565b600065ffffffffffff82169050919050565b614c7881614c5d565b82525050565b6000602082019050614c936000830184614c6f565b92915050565b614ca281614756565b8114614cad57600080fd5b50565b600081359050614cbf81614c99565b92915050565b60008060408385031215614cdc57614cdb6146c7565b5b6000614cea85828601614914565b9250506020614cfb85828601614cb0565b9150509250929050565b600080fd5b600080fd5b7f4e487b7100000000000000000000000000000000000000000000000000000000600052604160045260246000fd5b614d47826147d2565b810181811067ffffffffffffffff82111715614d6657614d65614d0f565b5b80604052505050565b6000614d796146bd565b9050614d858282614d3e565b919050565b600067ffffffffffffffff821115614da557614da4614d0f565b5b614dae826147d2565b9050602081019050919050565b82818337600083830152505050565b6000614ddd614dd884614d8a565b614d6f565b905082815260208101848484011115614df957614df8614d0a565b5b614e04848285614dbb565b509392505050565b600082601f830112614e2157614e20614d05565b5b8135614e31848260208601614dca565b91505092915050565b60008060008060808587031215614e5457614e536146c7565b5b6000614e6287828801614914565b9450506020614e7387828801614914565b9350506040614e848782880161485f565b925050606085013567ffffffffffffffff811115614ea557614ea46146cc565b5b614eb187828801614e0c565b91505092959194509250565b600060ff82169050919050565b614ed381614ebd565b8114614ede57600080fd5b50565b600081359050614ef081614eca565b92915050565b60008060008060008060c08789031215614f1357614f126146c7565b5b6000614f2189828a01614914565b9650506020614f3289828a0161485f565b9550506040614f4389828a0161485f565b9450506060614f5489828a01614ee1565b9350506080614f6589828a016149dd565b92505060a0614f7689828a016149dd565b9150509295509295509295565b60008060408385031215614f9a57614f996146c7565b5b6000614fa885828601614914565b9250506020614fb985828601614914565b9150509250929050565b600080600080600060a08688031215614fdf57614fde6146c7565b5b6000614fed8882890161485f565b9550506020614ffe8882890161485f565b945050604061500f8882890161485f565b93505060606150208882890161485f565b92505060806150318882890161485f565b9150509295509295909350565b7f4e487b7100000000000000000000000000000000000000000000000000000000600052602260045260246000fd5b6000600282049050600182168061508557607f821691505b6020821081036150985761509761503e565b5b50919050565b7f4552433732313a20617070726f76616c20746f2063757272656e74206f776e6560008201527f7200000000000000000000000000000000000000000000000000000000000000602082015250565b60006150fa602183614797565b91506151058261509e565b604082019050919050565b60006020820190508181036000830152615129816150ed565b9050919050565b7f4552433732313a20617070726f76652063616c6c6572206973206e6f7420746f60008201527f6b656e206f776e6572206f7220617070726f76656420666f7220616c6c000000602082015250565b600061518c603d83614797565b915061519782615130565b604082019050919050565b600060208201905081810360008301526151bb8161517f565b9050919050565b7f4552433732313a2063616c6c6572206973206e6f7420746f6b656e206f776e6560008201527f72206f7220617070726f76656400000000000000000000000000000000000000602082015250565b600061521e602d83614797565b9150615229826151c2565b604082019050919050565b6000602082019050818103600083015261524d81615211565b9050919050565b7f416363657373436f6e74726f6c3a2063616e206f6e6c792072656e6f756e636560008201527f20726f6c657320666f722073656c660000000000000000000000000000000000602082015250565b60006152b0602f83614797565b91506152bb82615254565b604082019050919050565b600060208201905081810360008301526152df816152a3565b9050919050565b7f566f7465733a20667574757265206c6f6f6b7570000000000000000000000000600082015250565b600061531c601483614797565b9150615327826152e6565b602082019050919050565b6000602082019050818103600083015261534b8161530f565b9050919050565b7f4e487b7100000000000000000000000000000000000000000000000000000000600052601260045260246000fd5b600061538c8261483e565b91506153978361483e565b9250826153a7576153a6615352565b5b828206905092915050565b7f4e487b7100000000000000000000000000000000000000000000000000000000600052601160045260246000fd5b60006153ec8261483e565b91506153f78361483e565b92508261540757615406615352565b5b828204905092915050565b7f566f7465733a2062726f6b656e20636c6f636b206d6f64650000000000000000600082015250565b6000615448601883614797565b915061545382615412565b602082019050919050565b600060208201905081810360008301526154778161543b565b9050919050565b7f4552433732313a20696e76616c696420746f6b656e2049440000000000000000600082015250565b60006154b4601883614797565b91506154bf8261547e565b602082019050919050565b600060208201905081810360008301526154e3816154a7565b9050919050565b7f4552433732313a2061646472657373207a65726f206973206e6f74206120766160008201527f6c6964206f776e65720000000000000000000000000000000000000000000000602082015250565b6000615546602983614797565b9150615551826154ea565b604082019050919050565b6000602082019050818103600083015261557581615539565b9050919050565b7f566f7465733a207369676e617475726520657870697265640000000000000000600082015250565b60006155b2601883614797565b91506155bd8261557c565b602082019050919050565b600060208201905081810360008301526155e1816155a5565b9050919050565b60006080820190506155fd6000830187614a1f565b61560a60208301866148d3565b6156176040830185614a89565b6156246060830184614a89565b95945050505050565b7f566f7465733a20696e76616c6964206e6f6e6365000000000000000000000000600082015250565b6000615663601483614797565b915061566e8261562d565b602082019050919050565b6000602082019050818103600083015261569281615656565b9050919050565b600081905092915050565b7f7b226e616d65223a2022416e696d616c20535647222c00000000000000000000600082015250565b60006156da601683615699565b91506156e5826156a4565b601682019050919050565b7f226465736372697074696f6e223a2022416e696d616c20535647204e4654732260008201527f2c00000000000000000000000000000000000000000000000000000000000000602082015250565b600061574c602183615699565b9150615757826156f0565b602182019050919050565b7f22696d616765223a2022646174613a696d6167652f7376672b786d6c3b62617360008201527f6536342c00000000000000000000000000000000000000000000000000000000602082015250565b60006157be602483615699565b91506157c982615762565b602482019050919050565b60006157df8261478c565b6157e98185615699565b93506157f98185602086016147a8565b80840191505092915050565b7f222c000000000000000000000000000000000000000000000000000000000000600082015250565b600061583b600283615699565b915061584682615805565b600282019050919050565b7f2261747472696275746573223a205b0000000000000000000000000000000000600082015250565b6000615887600f83615699565b915061589282615851565b600f82019050919050565b7f7b2274726169745f74797065223a202267656e646572222c0000000000000000600082015250565b60006158d3601883615699565b91506158de8261589d565b601882019050919050565b7f2276616c7565223a202200000000000000000000000000000000000000000000600082015250565b600061591f600a83615699565b915061592a826158e9565b600a82019050919050565b7f227d2c0000000000000000000000000000000000000000000000000000000000600082015250565b600061596b600383615699565b915061597682615935565b600382019050919050565b7f7b2274726169745f74797065223a2022726172697479222c0000000000000000600082015250565b60006159b7601883615699565b91506159c282615981565b601882019050919050565b7f227d000000000000000000000000000000000000000000000000000000000000600082015250565b6000615a03600283615699565b9150615a0e826159cd565b600282019050919050565b7f5d7d000000000000000000000000000000000000000000000000000000000000600082015250565b6000615a4f600283615699565b9150615a5a82615a19565b600282019050919050565b6000615a70826156cd565b9150615a7b8261573f565b9150615a86826157b1565b9150615a9282866157d4565b9150615a9d8261582e565b9150615aa88261587a565b9150615ab3826158c6565b9150615abe82615912565b9150615aca82856157d4565b9150615ad58261595e565b9150615ae0826159aa565b9150615aeb82615912565b9150615af782846157d4565b9150615b02826159f6565b9150615b0d82615a42565b9150819050949350505050565b7f646174613a6170706c69636174696f6e2f6a736f6e3b6261736536342c000000600082015250565b6000615b50601d83615699565b9150615b5b82615b1a565b601d82019050919050565b6000615b7182615b43565b9150615b7d82846157d4565b915081905092915050565b7f4552433732313a207472616e736665722066726f6d20696e636f72726563742060008201527f6f776e6572000000000000000000000000000000000000000000000000000000602082015250565b6000615be4602583614797565b9150615bef82615b88565b604082019050919050565b60006020820190508181036000830152615c1381615bd7565b9050919050565b7f4552433732313a207472616e7366657220746f20746865207a65726f2061646460008201527f7265737300000000000000000000000000000000000000000000000000000000602082015250565b6000615c76602483614797565b9150615c8182615c1a565b604082019050919050565b60006020820190508181036000830152615ca581615c69565b9050919050565b7f53616665436173743a2076616c756520646f65736e27742066697420696e203360008201527f3220626974730000000000000000000000000000000000000000000000000000602082015250565b6000615d08602683614797565b9150615d1382615cac565b604082019050919050565b60006020820190508181036000830152615d3781615cfb565b9050919050565b6000615d498261483e565b9150615d548361483e565b9250828203905081811115615d6c57615d6b6153b2565b5b92915050565b6000615d7d8261483e565b9150615d888361483e565b9250828201905080821115615da057615d9f6153b2565b5b92915050565b6000615db18261483e565b91507fffffffffffffffffffffffffffffffffffffffffffffffffffffffffffffffff8203615de357615de26153b2565b5b600182019050919050565b7f53616665436173743a2076616c756520646f65736e27742066697420696e203460008201527f3820626974730000000000000000000000000000000000000000000000000000602082015250565b6000615e4a602683614797565b9150615e5582615dee565b604082019050919050565b60006020820190508181036000830152615e7981615e3d565b9050919050565b7f4552433732313a20617070726f766520746f2063616c6c657200000000000000600082015250565b6000615eb6601983614797565b9150615ec182615e80565b602082019050919050565b60006020820190508181036000830152615ee581615ea9565b9050919050565b7f4552433732313a207472616e7366657220746f206e6f6e20455243373231526560008201527f63656976657220696d706c656d656e7465720000000000000000000000000000602082015250565b6000615f48603283614797565b9150615f5382615eec565b604082019050919050565b60006020820190508181036000830152615f7781615f3b565b9050919050565b6000615f8a82856157d4565b9150615f9682846157d4565b91508190509392505050565b7f4e487b7100000000000000000000000000000000000000000000000000000000600052603260045260246000fd5b7f3c73766720786d6c6e733d27687474703a2f2f7777772e77332e6f72672f323060008201527f30302f737667272076657273696f6e3d27312e312720786d6c6e733a786c696e60208201527f6b3d27687474703a2f2f7777772e77332e6f72672f313939392f786c696e6b2760408201527f20786d6c6e733a7376676a733d27687474703a2f2f7376676a732e636f6d2f7360608201527f76676a73272077696474683d2735303027206865696768743d2735303027207060808201527f72657365727665417370656374526174696f3d276e6f6e65272076696577426f60a08201527f783d273020302035303020353030273e203c726563742077696474683d27313060c08201527f302527206865696768743d2731303025272066696c6c3d27000000000000000060e082015250565b600061611160f883615699565b915061611c82615fd1565b60f882019050919050565b60008190508160005260206000209050919050565b600081546161498161506d565b6161538186615699565b9450600182166000811461616e5760018114616183576161b6565b60ff19831686528115158202860193506161b6565b61618c85616127565b60005b838110156161ae5781548189015260018201915060208101905061618f565b838801955050505b50505092915050565b7f27202f3e00000000000000000000000000000000000000000000000000000000600082015250565b60006161f5600483615699565b9150616200826161bf565b600482019050919050565b600061621682616104565b9150616222828461613c565b915061622d826161e8565b915081905092915050565b7f3c7465787420783d273530252720793d273530252720666f6e742d73697a653d60008201527f273132382720646f6d696e616e742d626173656c696e653d276d6964646c652760208201527f20746578742d616e63686f723d276d6964646c65273e00000000000000000000604082015250565b60006162ba605683615699565b91506162c582616238565b605682019050919050565b7f3c2f746578743e00000000000000000000000000000000000000000000000000600082015250565b6000616306600783615699565b9150616311826162d0565b600782019050919050565b6000616327826162ad565b9150616333828461613c565b915061633e826162f9565b915081905092915050565b600061635582866157d4565b915061636182856157d4565b915061636d82846157d4565b9150819050949350505050565b60006163858261483e565b91506163908361483e565b925082820261639e8161483e565b915082820484148315176163b5576163b46153b2565b5b5092915050565b7f45524337323155524953746f726167653a2055524920736574206f66206e6f6e60008201527f6578697374656e7420746f6b656e000000000000000000000000000000000000602082015250565b6000616418602e83614797565b9150616423826163bc565b604082019050919050565b600060208201905081810360008301526164478161640b565b9050919050565b60006020601f8301049050919050565b600082821b905092915050565b60006008830261649b7fffffffffffffffffffffffffffffffffffffffffffffffffffffffffffffffff8261645e565b6164a5868361645e565b95508019841693508086168417925050509392505050565b6000819050919050565b60006164e26164dd6164d88461483e565b6164bd565b61483e565b9050919050565b6000819050919050565b6164fc836164c7565b616510616508826164e9565b84845461646b565b825550505050565b600090565b616525616518565b6165308184846164f3565b505050565b5b818110156165545761654960008261651d565b600181019050616536565b5050565b601f8211156165995761656a81616127565b6165738461644e565b81016020851015616582578190505b61659661658e8561644e565b830182616535565b50505b505050565b600082821c905092915050565b60006165bc6000198460080261659e565b1980831691505092915050565b60006165d583836165ab565b9150826002028217905092915050565b6165ee8261478c565b67ffffffffffffffff81111561660757616606614d0f565b5b616611825461506d565b61661c828285616558565b600060209050601f83116001811461664f576000841561663d578287015190505b61664785826165c9565b8655506166af565b601f19841661665d86616127565b60005b8281101561668557848901518255600182019150602085019450602081019050616660565b868310156166a2578489015161669e601f8916826165ab565b8355505b6001600288020188555050505b505050505050565b7f416363657373436f6e74726f6c3a206163636f756e7420000000000000000000600082015250565b60006166ed601783615699565b91506166f8826166b7565b601782019050919050565b7f206973206d697373696e6720726f6c6520000000000000000000000000000000600082015250565b6000616739601183615699565b915061674482616703565b601182019050919050565b600061675a826166e0565b915061676682856157d4565b91506167718261672c565b915061677d82846157d4565b91508190509392505050565b600060a08201905061679e6000830188614a1f565b6167ab6020830187614a1f565b6167b86040830186614a1f565b6167c56060830185614a89565b6167d260808301846148d3565b9695505050505050565b60006040820190506167f16000830185614a89565b6167fe6020830184614a89565b9392505050565b600081519050919050565b600082825260208201905092915050565b600061682c82616805565b6168368185616810565b93506168468185602086016147a8565b61684f816147d2565b840191505092915050565b600060808201905061686f60008301876148d3565b61687c60208301866148d3565b6168896040830185614a89565b818103606083015261689b8184616821565b905095945050505050565b6000815190506168b5816146fd565b92915050565b6000602082840312156168d1576168d06146c7565b5b60006168df848285016168a6565b91505092915050565b6168f181614ebd565b82525050565b600060808201905061690c6000830187614a1f565b61691960208301866168e8565b6169266040830185614a1f565b6169336060830184614a1f565b95945050505050565b7f4e487b7100000000000000000000000000000000000000000000000000000000600052602160045260246000fd5b7f45434453413a20696e76616c6964207369676e61747572650000000000000000600082015250565b60006169a1601883614797565b91506169ac8261696b565b602082019050919050565b600060208201905081810360008301526169d081616994565b9050919050565b7f45434453413a20696e76616c6964207369676e6174757265206c656e67746800600082015250565b6000616a0d601f83614797565b9150616a18826169d7565b602082019050919050565b60006020820190508181036000830152616a3c81616a00565b9050919050565b7f45434453413a20696e76616c6964207369676e6174757265202773272076616c60008201527f7565000000000000000000000000000000000000000000000000000000000000602082015250565b6000616a9f602283614797565b9150616aaa82616a43565b604082019050919050565b60006020820190508181036000830152616ace81616a92565b9050919050565b6000616ae08261483e565b915060008203616af357616af26153b2565b5b600182039050919050565b7f537472696e67733a20686578206c656e67746820696e73756666696369656e74600082015250565b6000616b34602083614797565b9150616b3f82616afe565b602082019050919050565b60006020820190508181036000830152616b6381616b27565b9050919050565b60007bffffffffffffffffffffffffffffffffffffffffffffffffffffffff82169050919050565b6000616b9d82616b6a565b9150616ba883616b6a565b925082820390507bffffffffffffffffffffffffffffffffffffffffffffffffffffffff811115616bdc57616bdb6153b2565b5b92915050565b7f53616665436173743a2076616c756520646f65736e27742066697420696e203260008201527f3234206269747300000000000000000000000000000000000000000000000000602082015250565b6000616c3e602783614797565b9150616c4982616be2565b604082019050919050565b60006020820190508181036000830152616c6d81616c31565b9050919050565b6000616c7f82616b6a565b9150616c8a83616b6a565b925082820190507bffffffffffffffffffffffffffffffffffffffffffffffffffffffff811115616cbe57616cbd6153b2565b5b92915050565b7f4552433732313a206d696e7420746f20746865207a65726f2061646472657373600082015250565b6000616cfa602083614797565b9150616d0582616cc4565b602082019050919050565b60006020820190508181036000830152616d2981616ced565b9050919050565b7f4552433732313a20746f6b656e20616c7265616479206d696e74656400000000600082015250565b6000616d66601c83614797565b9150616d7182616d30565b602082019050919050565b60006020820190508181036000830152616d9581616d59565b9050919050565b7f436865636b706f696e743a2064656372656173696e67206b6579730000000000600082015250565b6000616dd2601b83614797565b9150616ddd82616d9c565b602082019050919050565b60006020820190508181036000830152616e0181616dc5565b905091905056fe4142434445464748494a4b4c4d4e4f505152535455565758595a6162636465666768696a6b6c6d6e6f707172737475767778797a303132333435363738392b2fa2646970667358221220a8cac6e58a72da8e1434cb7c4fbb253a302acc831b47fb68432d3a5659c9544564736f6c63430008130033",
    "linkReferences": {},
    "deployedLinkReferences": {}
}