{
    "_format": "hh-sol-artifact-1",
    "contractName": "TokenizedBallot",
    "sourceName": "contracts/TokenizedBallot.sol",
    "abi": [
        {
            "inputs": [
                {
                    "internalType": "bytes32[]",
                    "name": "_proposalNames",
                    "type": "bytes32[]"
                },
                {
                    "internalType": "address",
                    "name": "_tokenContract",
                    "type": "address"
                }
            ],
            "stateMutability": "nonpayable",
            "type": "constructor"
        },
        {
            "inputs": [
                {
                    "internalType": "uint256",
                    "name": "",
                    "type": "uint256"
                }
            ],
            "name": "proposals",
            "outputs": [
                {
                    "internalType": "bytes32",
                    "name": "name",
                    "type": "bytes32"
                },
                {
                    "internalType": "uint256",
                    "name": "voteCount",
                    "type": "uint256"
                }
            ],
            "stateMutability": "view",
            "type": "function"
        },
        {
            "inputs": [],
            "name": "tokenContract",
            "outputs": [
                {
                    "internalType": "contract IMyToken",
                    "name": "",
                    "type": "address"
                }
            ],
            "stateMutability": "view",
            "type": "function"
        },
        {
            "inputs": [
                {
                    "internalType": "uint256",
                    "name": "proposal",
                    "type": "uint256"
                },
                {
                    "internalType": "uint256",
                    "name": "amount",
                    "type": "uint256"
                }
            ],
            "name": "vote",
            "outputs": [],
            "stateMutability": "nonpayable",
            "type": "function"
        },
        {
            "inputs": [
                {
                    "internalType": "address",
                    "name": "account",
                    "type": "address"
                }
            ],
            "name": "votingPower",
            "outputs": [
                {
                    "internalType": "uint256",
                    "name": "",
                    "type": "uint256"
                }
            ],
            "stateMutability": "view",
            "type": "function"
        },
        {
            "inputs": [],
            "name": "winnerName",
            "outputs": [
                {
                    "internalType": "bytes32",
                    "name": "winnerName_",
                    "type": "bytes32"
                }
            ],
            "stateMutability": "view",
            "type": "function"
        },
        {
            "inputs": [],
            "name": "winningProposal",
            "outputs": [
                {
                    "internalType": "uint256",
                    "name": "winningProposal_",
                    "type": "uint256"
                }
            ],
            "stateMutability": "view",
            "type": "function"
        }
    ],
    "bytecode": "0x60806040523480156200001157600080fd5b5060405162000e3538038062000e3583398181016040528101906200003791906200037a565b806000806101000a81548173ffffffffffffffffffffffffffffffffffffffff021916908373ffffffffffffffffffffffffffffffffffffffff16021790555060005b825181101562000148576000600180816001815401808255809150500390600052602060002090600302019050838281518110620000bd57620000bc620003e0565b5b602002602001015181600001819055506000816001018190555060008160020160003373ffffffffffffffffffffffffffffffffffffffff1673ffffffffffffffffffffffffffffffffffffffff16815260200190815260200160002060006101000a81548160ff0219169083151502179055505080806200013f9062000448565b9150506200007a565b50505062000495565b6000604051905090565b600080fd5b600080fd5b600080fd5b6000601f19601f8301169050919050565b7f4e487b7100000000000000000000000000000000000000000000000000000000600052604160045260246000fd5b620001b5826200016a565b810181811067ffffffffffffffff82111715620001d757620001d66200017b565b5b80604052505050565b6000620001ec62000151565b9050620001fa8282620001aa565b919050565b600067ffffffffffffffff8211156200021d576200021c6200017b565b5b602082029050602081019050919050565b600080fd5b6000819050919050565b620002488162000233565b81146200025457600080fd5b50565b60008151905062000268816200023d565b92915050565b6000620002856200027f84620001ff565b620001e0565b90508083825260208201905060208402830185811115620002ab57620002aa6200022e565b5b835b81811015620002d85780620002c3888262000257565b845260208401935050602081019050620002ad565b5050509392505050565b600082601f830112620002fa57620002f962000165565b5b81516200030c8482602086016200026e565b91505092915050565b600073ffffffffffffffffffffffffffffffffffffffff82169050919050565b6000620003428262000315565b9050919050565b620003548162000335565b81146200036057600080fd5b50565b600081519050620003748162000349565b92915050565b600080604083850312156200039457620003936200015b565b5b600083015167ffffffffffffffff811115620003b557620003b462000160565b5b620003c385828601620002e2565b9250506020620003d68582860162000363565b9150509250929050565b7f4e487b7100000000000000000000000000000000000000000000000000000000600052603260045260246000fd5b7f4e487b7100000000000000000000000000000000000000000000000000000000600052601160045260246000fd5b6000819050919050565b600062000455826200043e565b91507fffffffffffffffffffffffffffffffffffffffffffffffffffffffffffffffff82036200048a57620004896200040f565b5b600182019050919050565b61099080620004a56000396000f3fe608060405234801561001057600080fd5b50600436106100625760003560e01c8063013cf08b1461006757806355a373d614610098578063609ff1bd146100b6578063b384abef146100d4578063c07473f6146100f0578063e2ba53f014610120575b600080fd5b610081600480360381019061007c91906104e6565b61013e565b60405161008f92919061053b565b60405180910390f35b6100a0610172565b6040516100ad91906105e3565b60405180910390f35b6100be610196565b6040516100cb91906105fe565b60405180910390f35b6100ee60048036038101906100e99190610619565b61021e565b005b61010a60048036038101906101059190610697565b6103d3565b60405161011791906105fe565b60405180910390f35b610128610477565b60405161013591906106c4565b60405180910390f35b6001818154811061014e57600080fd5b90600052602060002090600302016000915090508060000154908060010154905082565b60008054906101000a900473ffffffffffffffffffffffffffffffffffffffff1681565b6000806000905060005b6001805490508110156102195781600182815481106101c2576101c16106df565b5b906000526020600020906003020160010154111561020657600181815481106101ee576101ed6106df565b5b90600052602060002090600302016001015491508092505b80806102119061073d565b9150506101a0565b505090565b80610228336103d3565b1015610269576040517f08c379a000000000000000000000000000000000000000000000000000000000815260040161026090610808565b60405180910390fd5b6001828154811061027d5761027c6106df565b5b906000526020600020906003020160020160003373ffffffffffffffffffffffffffffffffffffffff1673ffffffffffffffffffffffffffffffffffffffff16815260200190815260200160002060009054906101000a900460ff1615610319576040517f08c379a00000000000000000000000000000000000000000000000000000000081526004016103109061089a565b60405180910390fd5b600180838154811061032e5761032d6106df565b5b906000526020600020906003020160020160003373ffffffffffffffffffffffffffffffffffffffff1673ffffffffffffffffffffffffffffffffffffffff16815260200190815260200160002060006101000a81548160ff02191690831515021790555080600183815481106103a8576103a76106df565b5b906000526020600020906003020160010160008282546103c891906108ba565b925050819055505050565b60008060009054906101000a900473ffffffffffffffffffffffffffffffffffffffff1673ffffffffffffffffffffffffffffffffffffffff16639ab24eb0836040518263ffffffff1660e01b815260040161042f91906108fd565b602060405180830381865afa15801561044c573d6000803e3d6000fd5b505050506040513d601f19601f82011682018060405250810190610470919061092d565b9050919050565b60006001610483610196565b81548110610494576104936106df565b5b906000526020600020906003020160000154905090565b600080fd5b6000819050919050565b6104c3816104b0565b81146104ce57600080fd5b50565b6000813590506104e0816104ba565b92915050565b6000602082840312156104fc576104fb6104ab565b5b600061050a848285016104d1565b91505092915050565b6000819050919050565b61052681610513565b82525050565b610535816104b0565b82525050565b6000604082019050610550600083018561051d565b61055d602083018461052c565b9392505050565b600073ffffffffffffffffffffffffffffffffffffffff82169050919050565b6000819050919050565b60006105a96105a461059f84610564565b610584565b610564565b9050919050565b60006105bb8261058e565b9050919050565b60006105cd826105b0565b9050919050565b6105dd816105c2565b82525050565b60006020820190506105f860008301846105d4565b92915050565b6000602082019050610613600083018461052c565b92915050565b600080604083850312156106305761062f6104ab565b5b600061063e858286016104d1565b925050602061064f858286016104d1565b9150509250929050565b600061066482610564565b9050919050565b61067481610659565b811461067f57600080fd5b50565b6000813590506106918161066b565b92915050565b6000602082840312156106ad576106ac6104ab565b5b60006106bb84828501610682565b91505092915050565b60006020820190506106d9600083018461051d565b92915050565b7f4e487b7100000000000000000000000000000000000000000000000000000000600052603260045260246000fd5b7f4e487b7100000000000000000000000000000000000000000000000000000000600052601160045260246000fd5b6000610748826104b0565b91507fffffffffffffffffffffffffffffffffffffffffffffffffffffffffffffffff820361077a5761077961070e565b5b600182019050919050565b600082825260208201905092915050565b7f546f6b656e697a656442616c6c6f743a20747279696e6720746f20766f74652060008201527f6d6f7265207468616e20616c6c6f776564000000000000000000000000000000602082015250565b60006107f2603183610785565b91506107fd82610796565b604082019050919050565b60006020820190508181036000830152610821816107e5565b9050919050565b7f546f6b656e697a656442616c6c6f743a20616464726573732068617320616c7260008201527f6561647920766f74656420666f7220746869732070726f706f73616c00000000602082015250565b6000610884603c83610785565b915061088f82610828565b604082019050919050565b600060208201905081810360008301526108b381610877565b9050919050565b60006108c5826104b0565b91506108d0836104b0565b92508282019050808211156108e8576108e761070e565b5b92915050565b6108f781610659565b82525050565b600060208201905061091260008301846108ee565b92915050565b600081519050610927816104ba565b92915050565b600060208284031215610943576109426104ab565b5b600061095184828501610918565b9150509291505056fea2646970667358221220e6a7de216f4dc4ddfcd243a2450e8cfe291b706ab20881e6aa40ac8b97f55ceb64736f6c63430008130033",
    "linkReferences": {},
    "deployedLinkReferences": {}
}